S01800006573645F61737369676E6D656E745F312E73726563A8
S113000059C0000067C0000065C0000063C0000064
S113001061C000005FC000005DC000005BC0000064
S113002059C0000057C0000055C0000053C0000074
S113003051C000004FC000004DC000004BC0000084
S113004049C0000047C0000045C0000043C0000094
S113005041C000003FC000003DC000003BC00000A4
S113006039C00000E0C0000035C0000033C000000B
S113007031C000002FC000002DC000002BC00000C4
S113008029C0000027C0000025C0000023C00000D4
S113009021C000001FC0000077007A007D008000AE
S11300A083008600D900D900D900D90089009100C5
S11300B0A800C10011241FBECFEFD0E2DEBFCDBF28
S11300C021E0A0E0B1E001C01D92AD30B207E1F73C
S11300D0A3D05DC195CFE09104018E2F90E08E30C6
S11300E0910508F066C0FC01E45BFF4F47C180E066
S11300F02FD15FC080B12CD15CC082E630D159C011
S113010081E62DD156C083E62AD153C080E627D19B
S113011050C0809102019091030188B98AE018D1FE
S113012048C080910201909103011816190624F425
S113013084B1806884B903C084B18F7784B981E3C2
S113014090E090938D0080938C008BE001D131C0BE
S113015080910201909103011816190624F484B1C8
S1130160806484B903C084B18F7B84B98091020117
S11301709091030190938B0080938A008CE0E8D0E7
S113018018C080910201909103011816190624F4F5
S113019084B1806284B903C084B18F7D84B98091B5
S11301A002019091030190938900809388008DE06F
S11301B0CFD08FEF8093040110920B010895F8942F
S11301C08FEF87B911B893E09DB91EB898E9909361
S11301D0C90096E09093CA009CE09093CC001092E2
S11301E07C0097EC90937A009AEA909380009AE1CD
S11301F09093810021E330E03093870020938600C0
S11302008093040110920B0185E091E09093010129
S11302108093000178940895D2DF80910B018823A4
S1130220E1F359DFFACF1F920F920FB60F92112408
S11302300BB60F922F933F934F935F936F937F93DC
S11302408F939F93AF93BF93EF93FF9313D0FF913B
S1130250EF91BF91AF919F918F917F916F915F913A
S11302604F913F912F910F900BBE0F900FBE0F90A7
S11302701F901895E0910001F09101018091CE004A
S1130280808380910C01882319F0813091F00895C6
S1130290E0910001F09101018081833509F057C09C
S11302A081E080930C013196F0930101E093000109
S11302B00895E0910001F091010181E0E930F8072F
S11302C019F080818A3AF1F5809107018A3A29F47C
S11302D0809106018093040124C0809108018A3A28
S11302E061F4E5E0F1E0818180930401828190E092
S11302F0909303018093020114C0809109018A3A0A
S113030081F4E5E0F1E0818180930401828190E051
S1130310982F88272381820F911D90930301809346
S1130320020181E080930B01E5E0F1E086E0DF016A
S11303301D928A95E9F7F0930101E0930001109270
S11303400C0108953196F0930101E09300010895A2
S11303509091C80095FFFCCF8093CE0008958093C0
S11303607C00EAE7F0E080818064808380917A00F9
S113037086FDFCCF80917900EBCF0895EE0FFF1F2F
S11303800024001C0BBE0790F691E02D0994F8940C
S1050390FFCF99
S9030000FC
