:1000000059C0000067C0000065C0000063C0000068
:1000100061C000005FC000005DC000005BC0000068
:1000200059C0000057C0000055C0000053C0000078
:1000300051C000004FC000004DC000004BC0000088
:1000400049C0000047C0000045C0000043C0000098
:1000500041C000003FC000003DC000003BC00000A8
:1000600039C00000C3C0000035C0000033C000002C
:1000700031C000002FC000002DC000002BC00000C8
:1000800029C0000027C0000025C0000023C00000D8
:1000900021C000001FC0000077007D0080008300A9
:1000A00086008900D300D300D300D3008C009200D7
:1000B000A800BE0011241FBECFEFD0E2DEBFCDBF2F
:1000C00021E0A0E0B1E001C01D92AC30B207E1F741
:1000D0008AD01FC195CFE09109018E2F90E08E301C
:1000E000910508F060C0FC01E45BFF4F09C180E0AE
:1000F000F3D08FEF80930901089588B1EDC0089582
:1001000081E6F4C0089582E6F1C0089583E6EEC06A
:10011000089580E6EBC0089580910A0190910B014B
:1001200088B9089580910A0190910B01892B21F0E3
:1001300084B1806884B903C084B18F7784B9809119
:100140000A0190910B0190938D0080938C0008958B
:1001500080910A0190910B01892B21F084B1806478
:1001600084B903C084B18F7B84B980910A019091D6
:100170000B0190938B0080938A00089580910A016F
:1001800090910B01892B21F084B1806284B903C066
:1001900084B18F7D84B980910A0190910B01909375
:1001A0008900809388000895F8948FEF87B990E9CB
:1001B0009093C90096E09093CA009CE09093CC0085
:1001C00097EE90937A009EEF9093800099E1909340
:1001D00081002FE831E030938700209386007894E7
:1001E000809309010895E0DF76DFFECF1F920F9222
:1001F0000FB60F9211240BB60F922F933F934F938C
:100200005F936F937F938F939F93AF93BF93EF937E
:10021000FF9313D0FF91EF91BF91AF919F918F9179
:100220007F916F915F914F913F912F910F900BBEF6
:100230000F900FBE0F901F9018958091080181308C
:1002400019F0823081F008958091CE00833539F421
:10025000E0910001F09101018091CE00808382E065
:1002600080930801089580910001909101018750C9
:10027000914021F08091CE008A3AE9F4E2E0F1E089
:100280008181A9E0B1E08C93828190E0982F88274A
:100290002381820F911D12969C938E93119786E075
:1002A000DF011D928A95E9F7F0930101E0930001C7
:1002B00081E080930801E0910001F09101018091BB
:1002C000CE0080838091000190910101019690936E
:1002D00001018093000108959091C80095FFFCCF23
:1002E0008093CE008FEF80930901089580937C0066
:1002F00080917A0086FDFCCF80917900EDCF089542
:10030000EE0FFF1F0024001C0BBE0790F691E02D9E
:060310000994F894FFCFF0
:00000001FF
